:020000040800F2
:10000000902A0020290200082D090008490500084F
:1000100029090008E3020008591800080000000040
:10002000000000000000000000000000F9100008BF
:10003000E7020008000000008D0F00080D13000803
:10004000430200084302000843020008430200087C
:10005000430200084302000843020008430200086C
:10006000430200084302000843020008430200085C
:10007000430200084302000843020008430200084C
:10008000430200084302000843020008430200083C
:10009000430200084302000843020008430200082C
:1000A000430200084302000843020008430200081C
:1000B000430200084302000843020008430200080C
:1000C00043020008430200084302000843020008FC
:1000D0004302000811140008DD140008F914000898
:1000E00043020008430200084302000843020008DC
:1000F00043020008430200084302000843020008CC
:1001000043020008430200084302000843020008BB
:1001100043020008430200084302000843020008AB
:10012000430200084302000843020008430200089B
:10013000430200084302000843020008430200088B
:10014000430200084302000843020008430200087B
:100150004302000843020008430200081515000886
:10016000430200084302000843020008430200085B
:10017000430200084302000843020008430200084B
:10018000430200084302000800F002F800F03CF8C7
:100190000AA090E8000C82448344AAF10107DA45E2
:1001A00001D100F031F8AFF2090EBAE80F0013F0F8
:1001B000010F18BFFB1A43F001031847AC190000E8
:1001C000CC190000103A24BF78C878C1FAD8520779
:1001D00024BF30C830C144BF04680C6070470000C1
:1001E0000023002400250026103A28BF78C1FBD840
:1001F000520728BF30C148BF0B6070471FB501F0E0
:100200007EFC1FBD10B510BD00F031F81146FFF7A0
:10021000F5FF01F05FFC00F04FF803B4FFF7F2FFC9
:1002200003BC00F057F80000094880470948004720
:10023000FEE7FEE7FEE7FEE7FEE7FEE7FEE7FEE796
:10024000FEE7FEE704480549054A064B70470000F3
:10025000551300088901000890240020902A0020EE
:100260009026002090260020704770477047754602
:1002700000F02CF8AE4605006946534620F0070012
:10028000854618B020B5FFF7DDFFBDE820404FF0F0
:1002900000064FF000074FF000084FF0000B21F070
:1002A0000701AC46ACE8C009ACE8C009ACE8C0093D
:1002B000ACE8C0098D46704710B50446AFF3008026
:1002C0002046BDE81040FFF7A8BF00000048704777
:1002D0003024002001491820ABBEFEE726000200B2
:1002E000704700BFFEE7704710B539480078002816
:1002F0006DD000F093FB37480078062862D2DFE823
:1003000000F0031C414E5B601E213E2001F011FBFA
:100310001E21202001F00DFB1E215C2001F009FBB5
:100320000F213E2001F089FB0F21202001F085FBE9
:100330000F215C2001F081FB45E02D213E2001F0E2
:10034000CDFA2D21202001F0C9FA2D215C2001F0E9
:10035000C5FA1E213E2001F0F9FA1E21202001F0ED
:10036000F5FA1E215C2001F0F1FA0F213E2001F088
:10037000F9FA0F21202001F0F5FA0F215C2001F09D
:10038000F1FA20E01E21202001F00FFB1E215C204D
:1003900001F00BFB1E213E2001F007FB13E01E21A4
:1003A000202001F01CFB1E213E2001F018FB1E2125
:1003B0005C2001F014FB06E01E21084601F07EFAE5
:1003C00001E000E000BF00BF00200149087010BD3F
:1003D000290000202800002010B50448007820B132
:1003E00001F062F900200149087010BD2A000020C8
:1003F0002DE9F04304460D4616461F46DDF81C90D5
:10040000002C07DA6042864201DCBDE8F083301937
:10041000C6B20024002D06DA6842874200DCF4E709
:10042000781947B20025002E05DD802C03DA002F55
:1004300001DD402D00DBE8E7A019802802DDC4F1D2
:100440008000C6B2E819402802DDC5F1400047B27D
:10045000A04609E04B463A462946404600F0E4FBF8
:1004600008F101000FFA80F8A0194045F2DC00BF46
:10047000CBE7F0B50A4600210023002400BF3DE091
:10048000012505FA01F3156805EA03049C4234D1FD
:1004900005684F000326BE40B543056015794E0040
:1004A000B5400668354305601579012D02D01579F0
:1004B000022D16D185684F000326BE40B5438560E6
:1004C00055794E00B54086683543856045680126FC
:1004D0008E40B5434560456896798E40B6B2354347
:1004E0004560C5684F000326BE40B543C560D57959
:1004F0004E00B540C6683543C560491C1029BFD3BE
:10050000F0BDF0B5002300244D07ED0E02FA05F30F
:10051000CE1000F1200555F826504E07F70E0F2695
:10052000BE40B543CF1000F1200646F82750CE104C
:1005300000F1200555F8265045EA0304CE1000F1DD
:10054000200545F82640F0BD00BFFEE770B5024625
:100550000024002500230020958A138B1B0445EA04
:10056000030626F07F4404EA01068E4201D10120F1
:1005700000E0002070BD21B1028842F0010202803B
:1005800004E002884FF6FE731A40028070470000B4
:1005900000B587B00121880500F00AFD0121022085
:1005A00000F0F6FC04220A211D48FFF7AAFF0422EE
:1005B0000B211B48FFF7A5FF4FF44060019002207C
:1005C0008DF808008DF8090001208DF80A00002040
:1005D0008DF80B0001A91248FFF74BFF114800F0FE
:1005E00025F80020ADF810004BF6FF70ADF81200B2
:1005F0007820ADF814004FF48060ADF816000A487A
:1006000003904FF48040ADF8180001210548FFF732
:10061000B2FF03A9034800F06FF807B000BD000067
:100620000004024000580040A086010010B50446B6
:100630001348844209D10121480500F0C9FC00217A
:100640004FF4001000F0C4FC18E00E48844209D1B9
:100650000121880500F0BCFC00214FF4800000F06F
:10066000B7FC0BE00848844208D10121C80500F01E
:10067000AFFC00214FF4000000F0AAFC10BD000008
:100680000054004000580040005C004021B1028846
:1006900042F48072028004E002884FF6FF631A4041
:1006A0000280704721B1028842F40072028004E0A7
:1006B00002884FF6FF531A40028070470CB502467D
:1006C000002000230193009300920B0F019321F06F
:1006D0007F41019B1BB1009B1433009303E0090C85
:1006E000009B18330093009B1B680B400BB101204B
:1006F00000E000200CBD00002DE9FF4704460D4638
:100700000026B1460427DFF8CC80A6884FF6C070DB
:100710000640684600F07CFCDDF808802E48B8FBF7
:10072000F0F01FFA80F946EA0906A68020884FF605
:10073000FE710840208000262849286888420CD88D
:1007400028684000B8FBF0F087B2042F00DA0427D5
:100750003E4309F10100208427E0E8884BF6FF7151
:10076000884206D1286800EB4000B8FBF0F087B261
:1007700009E0286800EBC00101EB0010B8FBF0F0C5
:1007800087B247F48047C7F30B0008B947F0010769
:1007900047F4004006434FF4967009FB00F04FF415
:1007A0007A7190FBF1F0401C2084A683208840F0F1
:1007B0000100208026884FF6F5300640A888698918
:1007C000084306432680A889298908432081BDE87B
:1007D000FF87000000127A0040420F00A08601004F
:1007E00012B141F0010101E001F0FE010182704708
:1007F0000182704770B504460D4600BF4FF40031CA
:100800001C48FFF75BFF0028F8D101211948FFF7CA
:100810003DFF00BF18491748FFF798FE0028F9D0A0
:10082000002278211348FFF7DBFF00BF134911486E
:10083000FFF78CFE0028F9D021460E48FFF7D8FFBD
:1008400000BF0E49891C0B48FFF780FE0028F8D036
:1008500029460848FFF7CCFF00BF0849891C054816
:10086000FFF774FE0028F8D001210248FFF71AFFB5
:1008700070BD000000580040010003008200070026
:1008800001200149087070472900002000200AE07B
:10089000002105E00022054B03EB80135A54491C4C
:1008A0004029F7DB401C8028F2DB70473004002031
:1008B00010B51A48007828B91949086880470120FE
:1008C000164908701749097801EB4101144A02EBF7
:1008D0008101486880471349097801EB4101104ABA
:1008E00002EB81018868804700F02AFB0B48007802
:1008F000012811D10B48007808B9012000E0002040
:1009000008490870097801EB4101054A52F82100B5
:10091000804702200149087010BD00002C00002013
:10092000501B00082B00002000BFFEE770470000AE
:1009300070B5002100230F22C4781CB3174C246823
:1009400004F4E064C4F5E064C4F30721C1F10404D5
:10095000E3B20A4144789C40E1B2847814402143D8
:100960000C07210E0E4C05786155047804F01F0524
:100970000124AC4005786D11AD0005F1E025C5F806
:10098000004109E0047804F01F050124AC40054D46
:100990000678761145F8264070BD00000CED00E0A9
:1009A00000E400E080E100E002490143024A1160F6
:1009B000704700000000FA050CED00E02DE9F04161
:1009C00004460D464FF000087F2C05DA3F2D03DA70
:1009D000002C01DD002D02DCFF20BDE8F081661E49
:1009E0000EE06F1E08E0F9B2F0B200F035FA01280F
:1009F00001D108F101087F1C681C8742F3DD761CD9
:100A0000601C8642EDDDE9B2E0B200F025FA012873
:100A100001D1A8F1010808F0FF00DEE700B50020D1
:100A200000F00CFA00BD00002DE9F84F04460F4617
:100A300094461D46DDE90A68002F01DD394600E0D5
:100A400079420846C91700EB5171C910A0EBC102E9
:100A50003846F91707EB51714FEAE109002F03DA25
:100A6000A9F10109C2F108023046F11706EB5171F4
:100A7000C9100091F11706EB5171C910A6EBC10125
:100A800011B10098401C00900023C3E009EB030063
:100A9000072800DDC2E010F1020F7CDD0021B4E088
:100AA00001EB040ABAF17F0F00DDB1E001EB040AAB
:100AB000BAF1000F6EDB002849DBB8F1010F16D147
:100AC00004EBC01A8A44DFF85CB11BF80AA003FBF0
:100AD00005CB1BF801B00BFA02FB4AEA0B0A04EB48
:100AE000C01B8B44DFF83CE10EF80BA02FE0B8F1FF
:100AF000000F16D104EBC01A8A44DFF828B11BF8A6
:100B00000AA003FB05CB1BF801B00BFA02FB0AEAB3
:100B10000B0A04EBC01B8B44DFF808E10EF80BA0B6
:100B200015E004EBC01A8A44DFF8F8B01BF80AA0FD
:100B300003FB05CB1BF801B00BFA02FB8AEA0B0A98
:100B400004EBC01B8B44DFF8DCE00EF80BA00AB30B
:100B5000072859DA10F1020F56DDB8F1010F1BD149
:100B600003FB05CA1AF801A0C2F1080B4AFA0BFAF6
:100B700000F1010B04EBCB1B8B44DFF8A8E01EF85F
:100B80000BB04AEA0B0B00F1010A04EBCA1A8A44C3
:100B90000EF80AB038E03CE0B8F1000F1AD103FBC0
:100BA00005CA1AF801B0C2F1080A4BFA0AFB00F1B3
:100BB000010A04EBCA1A8A44DFF868E01EF80AA0AA
:100BC0002AEA0B0B00F1010A04EBCA1A8A440EF858
:100BD0000AB019E003FB05CA1AF801A0C2F1080B1C
:100BE0004AFA0BFA00F1010B04EBCB1B8B44DFF844
:100BF00034E01EF80BB08AEA0B0B00F1010A04EB9B
:100C0000CA1A8A440EF80AB0491CA942FFF648AF36
:100C100000BF5B1C00988342FFF638AF00BFBDE801
:100C2000F88F0000300000202DE9F04306460C4606
:100C30001546984604EB0509002C07DA6042854208
:100C400001DCBDE8F083281945B20024002D05DD44
:100C5000402C03DA002E01DD802E00DBF1E7601965
:100C6000402802DDC4F1400045B2002C01DC002028
:100C700000E02046074605E0F9B2F0B2424600F037
:100C8000A7F87F1CB9F1400F01DC484600E0402086
:100C9000B842F1DC00BFD4E72DE9FF43DDF82C902A
:100CA000BDF90C00BDF90410401A002805DDBDF99E
:100CB0000C00BDF90410401A04E0BDF90400BDF9B0
:100CC0000C10401ABDF90810BDF90020891A00293E
:100CD00005DDBDF90810BDF90020891A04E0BDF951
:100CE0000010BDF90820891A884201DD012000E0CA
:100CF000002007463FB101A9684600F0FAFE03A9AB
:100D000002A800F0F6FEBDF90000BDF90810884207
:100D100007DD02A9684600F0ECFE03A901A800F077
:100D2000E8FEBDF80800BDF80010401A04B2BDF995
:100D30000C00BDF90410401A002805DDBDF90C00B7
:100D4000BDF90410401A04E0BDF90400BDF90C100F
:100D5000401A0FFA80F8204604EBD07149100DB20A
:100D6000BDF90400BDF90C10884201DA012601E04A
:100D70004FF0FF3624E04FB1BDF80020D1B2BDF8EE
:100D80000420D0B24A4600F023F808E0BDF8042061
:100D9000D1B2BDF80020D0B24A4600F019F8A5EB58
:100DA000080005B2002D06DABDF80400304400B298
:100DB0000190281905B2BDF80000401C00B2009057
:100DC000BDF90000BDF908108842D4DDBDE8FF83FD
:100DD000F0B5034614467F2B01DC3F2900DDF0BD52
:100DE0000A46CD1701EB5575C5F3C70084B1CD1781
:100DF00001EB5575ED10A1EBC5060125B54003EBE0
:100E0000C0160D4FBE5D354303EBC016BD5511E056
:100E10000A46CD1701EB5575ED10A1EBC50601256E
:100E2000B54003EBC016044FBE5D26EA050503EB93
:100E3000C016BD5500BFD2E73000002000B1FF2032
:100E4000002103E0034A50544A1C11B2B1F5806FEF
:100E5000F8DB70473000002030B502460846CD1759
:100E600001EB5575C5F3C703CD1701EB5575ED10B3
:100E7000A1EBC505ECB202EBC310034D285C0125C4
:100E8000A5402840E04030BD3000002010B53220A1
:100E900000F0F2FCAE2000F0E1FC202000F0DEFCCF
:100EA000102000F0DBFCB02000F0D8FCC82000F0DF
:100EB000D5FC002000F0D2FC102000F0CFFC402038
:100EC00000F0CCFC812000F0C9FCFF2000F0C6FC43
:100ED000A12000F0C3FCA62000F0C0FCA82000F078
:100EE000BDFC3F2000F0BAFCA42000F0B7FCD320EA
:100EF00000F0B4FC002000F0B1FCD52000F0AEFC06
:100F0000F02000F0ABFCD92000F0A8FC222000F07B
:100F1000A5FCDA2000F0A2FC122000F09FFCDB20F0
:100F200000F09CFC202000F099FC8D2000F096FC45
:100F3000142000F093FCAF2000F090FC10BD0000E6
:100F400010B5202000F08AFC002000F087FC212052
:100F500000F084FC002000F081FC7F2000F07EFC8B
:100F6000222000F07BFC002000F078FC072000F03D
:100F700075FC002404E00449085D00F076FC641C64
:100F8000B4F5806FF7DB10BD300000207047000023
:100F900029B1064A12680243044B1A6004E0034A6E
:100FA00012688243014B1A607047000030380240DB
:100FB00029B1064A12680243044B1A6004E0034A4E
:100FC00012688243014B1A607047000040380240AB
:100FD00029B1064A12680243044B1A6004E0034A2E
:100FE00012688243014B1A607047000020380240AB
:100FF00029B1064A12680243044B1A6004E0034A0E
:1010000012688243014B1A60704700004438024066
:10101000F0B5002100220024022500260223324FD1
:101020003F6807F00C0121B1042905D0082937D108
:1010300005E02E4F076036E02D4F076033E02A4F62
:101040003F1F3F68C7F38056274F3F1F3F6807F099
:101050003F036EB1264FB7FBF3F7DFF88CC0ACF15E
:10106000040CDCF800C0CCF3881C07FB0CF40CE08B
:101070001E4FB7FBF3F7DFF870C0ACF1040CDCF8DF
:1010800000C0CCF3881C07FB0CF4174F3F1F3F68D0
:10109000C7F301477F1C7D00B4FBF5F7076002E052
:1010A000124F076000BF00BF0F4F3F6807F0F0010D
:1010B0000909104F7A5C0768D74047600A4F3F68BC
:1010C00007F4E051890A0B4F7A5C4768D740876084
:1010D000054F3F6807F46041490B064F7A5C47684B
:1010E000D740C760F0BD0000083802400024F4007B
:1010F00000127A001800002070470FB470B586B057
:1011000006460CA8019073E00B9800785C281CD16F
:101110000B98401C0B9000786E2809D072280FD1D4
:101120000D21304600F06CF80B98401C0B900BE042
:101130000A21304600F064F80B98401C0B9003E045
:101140000B98401C0B9000BF52E00B9800782528AC
:1011500040D10B98401C0B900078642818D073285D
:1011600033D1019810C801900BE02178304600F08F
:1011700047F800BF0021304600F0F5F90028F9D10A
:10118000641C20780028F0D10B98401C0B9020E0C4
:10119000019820C801900A2202A9284600F066FCA6
:1011A00002AC0BE02178304600F02AF800BF0021A5
:1011B000304600F0D8F90028F9D1641C20780028C6
:1011C000F0D10B98401C0B9003E00B98401C0B9047
:1011D00000BF0DE00B9810F8011B0B90304600F09B
:1011E0000FF800BF0021304600F0BDF90028F9D10A
:1011F0000B980078002887D106B070BC5DF814FB0E
:1012000070B504460D4600BF4021204600F0ABF902
:101210000128F9D12946204600F042FA70BD0000AD
:101220000CB50020019000903448006840F48030F4
:101230003249086000BF3148006800F40030009077
:101240000198401C0190009818B90198B0F5A04F82
:10125000F1D12A48006800F4003010B1012000905C
:1012600001E0002000900098012846D1234840303A
:10127000006840F0805021494031086020480068F3
:1012800040F440401E4908601C48083000681B4973
:10129000083108600846006840F4004008600846CD
:1012A000006840F4A05008601648091F0860081F35
:1012B000006840F08070091F086000BF0F48006898
:1012C00000F000700028F9D040F205700E49086067
:1012D0000A480830006820F0030008490831086017
:1012E0000846006840F00200086000BF034808306C
:1012F000006800F00C000828F8D10CBD003802404E
:101300000070004008544007003C02400448006858
:1013100020B103480068401E014908607047000082
:1013200014000020094800680949B0FBF1F0401E94
:101330004FF0E021486100208861062008610846DE
:10134000006920F0010008617047000000000020E3
:1013500040420F0010B51548006840F47000134972
:1013600008601348006840F001001149086000203F
:101370000F49083108600E4800680E4908400C49C2
:1013800008600D48091D0860081F006820F48020CF
:10139000091F0860002006490C310860FFF740FF74
:1013A0004FF0006001498039086010BD88ED00E011
:1013B00000380240FFFFF6FE103000240EB50DA2EB
:1013C00007CA8DE80700FFF7C5FF4FF4A060FFF7DD
:1013D000EBFAFFF7A7FF4FF4E13000F027F86A4679
:1013E00007A10A48FFF789FE4FF4FA7000F044FAAB
:1013F0000EBD000068656968656968656900000080
:101400007265616479202573200D0A000010014087
:1014100010B540F22551044800F0A5F840F22551DE
:10142000014800F085F810BD0010014010B588B0EB
:10143000044601210846FFF7ABFD01211020FFF70C
:10144000D7FD072209212348FFF75BF807220A216D
:101450002048FFF756F84FF4C060069002208DF840
:101460001C0000208DF81E0001208DF81F000220B6
:101470008DF81D0006A91748FEF7FBFF0294002017
:10148000ADF80C00ADF814000C20ADF812000020EF
:10149000ADF81000ADF80E0002A90F4800F096F864
:1014A00025208DF8040001208DF807008DF8050037
:1014B00000208DF8060001A8FFF73AFA012240F259
:1014C0002551054800F05CF80121034800F03FF881
:1014D00008B010BD000002400010014010B540F2FD
:1014E0002551044800F03FF840F22551014800F032
:1014F0001FF810BD0044004010B540F225510448CB
:1015000000F031F840F22551014800F011F810BD0B
:101510000048004010B540F22551044800F023F87F
:1015200040F22551014800F003F810BD00140140BD
:1015300010B50022002340F66A14A14200D100BF7A
:101540000A1201249440A3B2DC43048010BD21B1EF
:10155000828942F40052828104E082894DF6FF7351
:101560001A408281704702460020B1F5007F00D109
:1015700000BF13880B400BB1012000E00020704732
:10158000F0B50346002400260025002040F66A1727
:10159000B94200D100BF1846C1F3421401F01F0642
:1015A000012707FA06F5012C01D10C3004E0022CCA
:1015B00001D1103000E014301AB107682F430760E2
:1015C00002E00768AF430760F0BD00002DE9FF4768
:1015D00005460E460024A14600BFA046B08900B1D2
:1015E00000BF2C8A24F44054F08804432C82AC8938
:1015F00041F20C608443B088318908437189084303
:101600000443AC81AC8A24F44074B0890443AC82B6
:101610006846FFF7FDFC2048854202D01F488542FE
:1016200002D1DDF80C9001E0DDF80890A88900F403
:10163000004040B109EBC90000EB091031684900D6
:10164000B0FBF1F707E009EBC90000EB09103168C6
:101650008900B0FBF1F76420B7FBF0F0040120092A
:10166000642101FB1078A88900F4004040B13220C9
:1016700000EBC800B0FBF1F000F00700044308E005
:10168000322000EB08106421B0FBF1F000F00F00F5
:1016900004432C81BDE8FF87001001400014014085
:1016A000C1F308028280704770B5002416E000255F
:1016B00011E00C4800EB8410405D012805D1E9B22F
:1016C000E0B20122FFF784FB04E0E9B2E0B20022BD
:1016D000FFF77EFB6D1C402DEBDB641C802CE6DBF2
:1016E00070BD0000300400200420014908707047DC
:1016F0002800002070B500240025012054490870FE
:1017000000BFA0E000259AE0E9B2E0B2FFF7A4FB39
:10171000012849D1A9B2A0B2FFF750F909283CD25B
:10172000DFE800F0050B11171D23292F35000020DD
:10173000484901EB8411485535E00020454901EB4B
:10174000841148552FE00120424901EB841148558E
:1017500029E001203F4901EB8411485523E0002096
:101760003C4901EB841148551DE00020394901EB4B
:101770008411485517E00020364901EB8411485583
:1017800011E00020334901EB841148550BE00020A3
:10179000304901EB8411485505E000202D4901EB4B
:1017A0008411485500BF49E0A9B2A0B2FFF706F97D
:1017B00009283CD2DFE800F0050B11171D23292F63
:1017C00035000020234901EB8411485535E0002005
:1017D000204901EB841148552FE000201D4901EB01
:1017E0008411485529E001201A4901EB841148551C
:1017F00023E00020174901EB841148551DE000202B
:10180000144901EB8411485517E00020114901EB00
:101810008411485511E000200E4901EB8411485510
:101820000BE000200B4901EB8411485505E0002036
:10183000084901EB8411485500BF00BF6D1C402DC5
:10184000FFF662AF641C802CFFF65CAF70BD000039
:101850002A0000203004002000BFFEE710B5044637
:1018600021460020FEF7C6FF10BD10B504462146F4
:101870004020FEF7BFFF10BD00B970474FF47A71EA
:1018800041430D4A116000214FF0E0229161114661
:10189000096941F00101116100BF07490968002988
:1018A000FBD14FF0E021096921F001014FF0E02266
:1018B000116100BFE1E70000140000207CB5044680
:1018C0000D46012009212423034ACDE900102946B1
:1018D0002046FFF7A9F87CBD081B000870B5044638
:1018E0000D466A1CD1B2E0B20122FFF771FAAA1CC0
:1018F000D1B2E0B20122FFF76BFAE9B2621CD0B2BA
:101900000122FFF765FAEA1CD1B2621CD0B20122B3
:10191000FFF75EFA6A1CD1B2A21CD0B20122FFF717
:1019200057FAAA1CD1B2A21CD0B20122FFF750FA7A
:1019300070BD38B505460C46012023460090A81C12
:1019400002B221462846FFF7A7F938BD38B504464C
:101950000D46012002231A46294600902046FEF734
:1019600047FD38BD70B504460D46E9B2E0B201222C
:10197000FFF72EFA6A1CD1B2E0B20122FFF728FA73
:10198000E9B2621CD0B20122FFF722FA6A1CD1B27E
:10199000A21CD0B20122FFF71BFAAA1CD1B2621C12
:1019A000D0B20122FFF714FA70BD38B504460D46D7
:1019B00001202B460090A01C02B229462046FFF7CA
:1019C0006BF96A1CD1B2E0B20122FFF701FAAA1C3E
:1019D000D1B2621CD0B20122FFF7FAF938BD38B596
:1019E00005460C4601200090E01C03B2E81C02B240
:1019F000E01C01B22846FFF74FF9621CD1B2E8B2F1
:101A00000122FFF7E5F9A21CD1B2E8B20122FFF7EB
:101A1000DFF9E1B26A1CD0B20122FFF7D9F9E1B2D5
:101A20002A1DD0B20122FFF7D3F9A21CD1B22A1D80
:101A3000D0B20122FFF7CCF938BD38B505460C46C7
:101A4000012023460090E81C02B22146681C00B227
:101A5000FFF722F901200090601C03B2A81C02B21B
:101A6000601C01B22846FFF717F938BDF0B50346F0
:101A70000C4615462146002200260A2D03D00020E0
:101A800008702046F0BD33B9302001F8010B00206A
:101A900008700846F6E7002B03DA2D2001F8010B49
:101AA0005B420B480DE093FBF0F202B936B102F154
:101AB000300701F8017B02FB103301260A2790FB57
:101AC000F7F00028EFDC002008700846DAE7000095
:101AD00040420F00FFF772FCFEF75AFDFFF7D6F900
:101AE0000020FFF7ABF9FFF72BFA01E0FEF7E0FE6D
:101AF000FCE7B0F900200B8803800A8070474FF0A4
:101B00004070E1EE100A7047303000000000000025
:101B10000000708804042088702000001C1C220033
:101B2000630000000000000000000C0C000000003A
:101B300000000000000000000101000000000000A3
:101B40000000000000000000000000000000000095
:101B500081080008E9160008E90200088D0800085D
:101B6000F5160008D9030008881B000800000020B3
:101B700030000000C4010008B81B0008300000203D
:101B8000602A0000E0010008007A030A000000005B
:101B9000000000000102030406070809000000001D
:101BA0000000000001020304010203040607080903
:081BB00000000000000000002D
:040000050800018965
:00000001FF
